:020000040800F2
:1000000000000220258D00080120000803200008C0
:100010000520000807200008092000080000000053
:100020000000000000000000000000000B2000089D
:100030000D200008000000000F200008112000081B
:10004000758D0008758D0008758D0008758D000888
:10005000758D0008758D0008758D0008758D000878
:10006000758D0008758D0008758D0008758D000868
:10007000758D0008758D0008758D0008758D000858
:10008000758D0008758D0008758D0008758D000848
:10009000758D0008758D0008758D0008758D000838
:1000A000758D0008758D0008758D0008758D000828
:1000B000758D0008758D0008758D0008758D000818
:1000C000758D0008758D0008758D0008758D000808
:1000D000758D0008758D0008758D0008758D0008F8
:1000E000758D0008758D000800000000758D0008F2
:1000F000758D0008758D0008758D0008758D0008D8
:10010000758D0008758D0008758D0008758D0008C7
:10011000758D0008758D0008758D0008758D0008B7
:10012000758D0008758D0008758D0008758D0008A7
:10013000758D0008758D0008758D0008758D000897
:1001400000000000000000000000000000000000AF
:10015000758D0008758D0008758D0008758D000877
:10016000758D0008758D0008758D0008758D000867
:10017000758D0008758D0008758D0008758D000857
:10018000758D0008758D0008758D0008758D000847
:10019000758D0008758D0008758D0008758D000837
:1001A000758D0008758D0008758D0008758D000827
:1001B000758D0008758D0008758D0008758D000817
:1001C000758D0008758D0008758D0008758D000807
:1001D000758D0008758D0008758D0008758D0008F7
:1001E000758D0008758D0008758D0008758D0008E7
:1001F000758D0008758D0008758D0008758D0008D7
:10020000758D0008758D0008758D0008758D0008C6
:10021000758D0008758D0008758D0008758D0008B6
:10022000758D0008758D0008758D000800000000B0
:10023000758D0008758D000800000000758D0008A0
:10024000758D0008758D0008758D0008758D000886
:10025000758D0008758D0008758D0008758D000876
:10026000758D0008758D0008758D0008758D000866
:10027000758D0008758D0008758D00080000000060
:10028000758D0008758D0008758D00080000000050
:0802900000000000758D00085C
:1002980053B94AB9002908BF00281CBF4FF0FF31E5
:1002A8004FF0FF3000F00CB8ADF1080C6DE904CE4A
:1002B80008F07AFFDDF804E0DDE9022304B07047B6
:1002C800704700BF10B5054C237833B9044B13B100
:1002D8000448AFF300800123237010BD782000206C
:1002E800000000005C94000808B5034B1BB10349EB
:1002F8000348AFF3008008BD000000007C20002008
:100308005C94000808B572B6012001F025FCFEE7F0
:1003180000B595B004F052FC00F00CF900F06CF94F
:1003280000F0BAFA00F02AFA00F0BAF900F088F9F9
:1003380000F0F8F900F056FA00F0E2F907F0DEF8FC
:1003480000238DF848308DF83C30109307AA11929D
:10035800FF228DF84B20C3228DF849208DF84A30B2
:1003680003228DF814208DF815208DF816208DF8AD
:10037800173002218DF818108DF819300E208DF8DD
:10038800040008208DF805008DF806008DF8073068
:1003980020208DF808008DF8090080208DF80A00CB
:1003A8008DF80B008DF80C208DF80D108DF80E309F
:1003B80009228DF80F200F228DF810208DF84D306E
:1003C80040238DF803300FA800F00AFF8DF84D0088
:1003D80008B1FFF797FF01F02DFC05A800F095FD87
:1003E80008B1FFF78FFF01A801F010FB08B1FFF774
:1003F80089FF002001F0B0FB01E000F0E4FD0A22D3
:1004080001210DF14F0001F0E5FD0028F7D19DF81D
:100418004F30013B212B00F2898001A252F823F0D2
:1004280003040008B1040008B704000835050008F3
:1004380035050008350500083505000835050008AC
:10044800350500083505000835050008350500089C
:10045800350500083505000835050008350500088C
:10046800350500083505000835050008350500087C
:10047800350500083505000835050008350500086C
:10048800350500083505000835050008350500085C
:10049800350500083505000835050008D3040008AF
:1004A80035050008FF04000800F08DFDA7E70A22C3
:1004B80001210DF14E0001F08DFD20B99DF84E008F
:1004C80001F0D8FC9BE7FFF71DFF0A2201210DF17F
:1004D8004E0001F07FFD60B99DF84E0001F074F9FF
:1004E8008DF803000A2201210DF1030001F068FDD7
:1004F80085E7FFF707FF0A2201210DF14E0001F001
:1005080069FD88B90FA99DF84E0001F039F88DF8FA
:100518004D000A2201210DF14D0001F051FD002886
:100528003FF46DAFFFF7EEFEFFF7ECFE01F008FBBE
:1005380065E700BF00B59DB04C22002109A808F06E
:1005480049FC2022002101A808F044FC022004F004
:10055800E3FA00230093264B9A6942F440429A61D9
:100568009B6903F440430093224BDA6A42F001028C
:10057800DA62DB6A03F001030093009B1C4B9B6962
:1005880013F4005FFAD0012309934FF480330A93E0
:1005980002231293139314935022159216931793D0
:1005A80018930C23199300231A931B9309A801F09D
:1005B800CDFFB8B93F23019303230293002303938C
:1005C800082304934023059306934FF4806207920F
:1005D800089304210DEB010002F0ECFB28B91DB0D3
:1005E8005DF804FBFFF78EFEE4E7FFF78BFEF6E706
:1005F800004802580004005800B5B1B0BC220021E0
:1006080001A808F0E7FB4FF4883301930223029313
:1006180010220392049305930693C02307934FF483
:10062800803314934FF48053189301A802F05EFEB0
:1006380010B931B05DF804FBFFF764FEF9E700007C
:1006480008B51548154B0360A3F17863A3F57E231D
:10065800A3F24F234360002383600122C260036139
:1006680043618361C361036204F0C2FC50B9002195
:10067800094804F0C9FE40B90021074804F0F2FE19
:1006880030B908BDFFF73EFEF1E7FFF73BFEF3E7A1
:10069800FFF738FEF5E700BF74220020005800403D
:1006A80008B51548154B0360A3F17863A3F57D23BE
:1006B800A3F64F634360002383600122C260036195
:1006C80043618361C361036204F092FC50B9002165
:1006D800094804F099FE40B90021074804F0C2FE19
:1006E80030B908BDFFF70EFEF1E7FFF70BFEF3E7A1
:1006F800FFF708FEF5E700BFC022002000540040C5
:10070800064B074A1A6000225A609A604FF48041EB
:10071800D9601A6102225A61704700BFF82100208F
:100728000070005208B51348134B03604FF4800360
:100738004360002383600722C260036143614FF076
:1007480080628261C361036243628362C3624FF065
:10075800804242638363C363036443648364C36402
:1007680003654365836506F047F900B908BDFFF7DF
:10077800C9FDFBE7702100200038004008B5174884
:10078800174B03604FF46123436000238360C36009
:1007980003610C2242618361C36103624362836225
:1007A80005F0D2FF70B900210C4806F046F860B990
:1007B80000210A4806F066F850B9084806F01EF805
:1007C80048B908BDFFF79EFDEDE7FFF79BFDEFE792
:1007D800FFF798FDF1E7FFF795FDF2E79420002079
:1007E8000014014000B58FB000230A930B930C93BB
:1007F8000D9307930893099300930193029303932E
:100808000493059306932248224A02600A22426012
:10081800836049F64042C2600361836105F04EF887
:1008280038BB4FF480530A930AA9194805F09AF97E
:1008380010BB174805F072F808BB0023079309930B
:1008480007A9134805F02AFAE0B96023009348F68F
:10085800A0430193002302930493082269460C489D
:1008680005F0D6F888B90A4801F02AFD0FB05DF8FE
:1008780004FBFFF747FDD4E7FFF744FDD9E7FFF78F
:1008880041FDDAE7FFF73EFDDFE7FFF73BFDEAE76B
:1008980024210020000800402DE9F0418CB00024FC
:1008A8000794089409940A940B946D4BD3F8E020AC
:1008B80042F00102C3F8E020D3F8E02002F0010280
:1008C8000192019AD3F8E02042F00202C3F8E02036
:1008D800D3F8E02002F002020292029AD3F8E02054
:1008E80042F00402C3F8E020D3F8E02002F004024A
:1008F8000392039AD3F8E02042F00802C3F8E020FC
:10090800D3F8E02002F008020492049AD3F8E02019
:1009180042F01002C3F8E020D3F8E02002F0100201
:100928000592059AD3F8E02042F08002C3F8E0204F
:10093800D3F8E03003F080030693069B494D01226B
:100948004FF46061284604F0E0F84FF460630793C1
:100958001123089309940A9407A9284603F0BEFFB7
:1009680005F5806501224FF48051284604F0CDF842
:100978004FF4805707970126089609940A9407A907
:10098800284603F0ABFF05F50065224639462846A0
:1009980004F0BBF80797089609940A9407A9284613
:1009A80003F09CFF32464FF40051284604F0ADF89E
:1009B8004FF40058CDF81C80089609940A9407A9AA
:1009C800284603F08BFF284F22464146384604F05C
:1009D8009CF8CDF81C80089609940A9407A9384613
:1009E80003F07CFF22464021284604F08EF840237D
:1009F8000793089609940A9407A9284603F06EFFFE
:100A0800802307930894099407A9284603F066FFF2
:100A18001023079308940994144E07A9304603F04D
:100A28005DFF4FF4804307930894099407A938465B
:100A380003F054FF0823079308940223099307A996
:100A4800304603F04BFF4FF4004307930894099492
:100A580007A9284603F042FF0CB0BDE8F08100BFAB
:100A680000440258000002580008025800100258BA
:100A780040EA0120704740EA012000B270470000B8
:100A880000B585B002910191009201230246EC2144
:100A9800044804F0E1FB10B905B05DF804FB082038
:100AA800FAE700BFC02200202DE9F04F91B00023E3
:100AB8000A930B930C930D930E93ADF83C3004936B
:100AC80005930693079308938DF8243004AA1521FB
:100AD8003120FFF7D5FF8346002840F0ED809DF8D0
:100AE80011109DF81000FFF7C3FF0546ADF8280068
:100AF8009DF813109DF81200FFF7BAFF0446ADF8F1
:100B08002A009DF914A08DF82CA09DF816109DF8C8
:100B18001500FFF7B0FF0090ADF82E009DF81810F3
:100B28009DF81700FFF7A7FF0190ADF830009DF979
:100B380019908DF832909DF91A808DF833809DF8C0
:100B48001C109DF81B00FFF793FF0290ADF83400CE
:100B58009DF81E109DF81D00FFF78AFF0390ADF861
:100B680036009DF91F708DF838709DF920608DF85A
:100B780039609DF822109DF82100FFF77CFFADF841
:100B88003A009DF923108DF83C109DF924208DF82A
:100B98003D2007EE905AF8EE677A9FED497A67EEA6
:100BA800877A484BC3ED007A07EE904AF8EE677AE9
:100BB8009FED457A67EE877AC3ED017A07EE90AA32
:100BC800F8EEE77A9FED417A67EE877AC3ED027A0D
:100BD800DDED007AF8EEE77ADFED3D6A77EEE67A4A
:100BE800C3ED037A9FED3B6A67EE867AC3ED037A1D
:100BF800DDED017AF8EEE77A77EEE67AC3ED047A6E
:100C0800DFED356A67EEA67AC3ED047A07EE909AAF
:100C1800F8EEE77ADFED316A67EEA67AC3ED057A7A
:100C280007EE908AF8EEE77ADFED2D6A67EEA67A8E
:100C3800C3ED067ADDED027AF8EE677AF2EE006A25
:100C480067EEA67AC3ED077ADDED037AF8EE677AE8
:100C5800DFED246A67EEA67AC3ED087A07EE907A8C
:100C6800F8EEE77ADFED206A67EEA67AC3ED097A37
:100C780007EE906AF8EEE77ADFED1C6A67EEA67A6F
:100C8800C3ED0A7A07EE900AF8EEE77A67EE877AFC
:100C9800C3ED0B7A07EE901AF8EEE77A67EE877ADB
:100CA800C3ED0C7A07EE902AF8EEE77A9FED107AFA
:100CB80067EE877AC3ED0D7A584611B0BDE8F08F1C
:100CC800000080430C2300200000803000008027B3
:100CD8000000804600008035000000310000802FB1
:100CE8000000002D0000803C0000803B0000003820
:100CF8000000001F00B587B002468DF817100123C9
:100D0800029301930DF117010091EC21044804F0BE
:100D1800CDF910B907B05DF804FB0820FAE700BF69
:100D2800C022002010B52DED068B09EE900A354C37
:100D380094ED08AA94ED0E9A2AEE09AAD4ED098A30
:100D4800F0EE000AB0EE490A08F04EF868EE808A24
:100D580094ED0A8AF0EE080AB0EE490A08F044F861
:100D680068EE007A94ED078A38EE0A8A38EE288A07
:100D780038EE278AD4ED04AA69EE2AAA94ED05AACA
:100D8800F0EE000AB0EE490A08F02EF82AEE00AAA2
:100D9800D4ED068AF0EE080AB0EE490A08F024F805
:100DA80068EE807AF8EE699AD4ED038A78EEAA8A1A
:100DB80078EE8A8A78EEA78A69EEA88AF0EE000AA9
:100DC800B0EE690A08F010F8D4ED0B7A94ED0C7ABD
:100DD80029EE079A77EE897A20EE279AF0EE080A2C
:100DE800B0EE690A08F000F8D4ED0D7A60EE277AC3
:100DF80077EE897A38EE280A30EE270ABDEC068BA2
:100E080010BD00BF0C23002010B52DED028B00EEA5
:100E1800100AB8EE400A0C4CD4ED007A30EE670A9E
:100E280094ED018A28EE008AF0EE000A07F0DCFF54
:100E3800D4ED027A20EE270A30EE080A84ED0E0A75
:100E4800BDEC028B10BD00BF0C230020F8B505785F
:100E580090F801E045EA0E1190F802C0C2784CEA19
:100E6800C20406794779134B1D7083F801E083F8B3
:100E780002C0DA701E715F71C9B21B20FFF73AFF1A
:100E880088B9E4B221461C20FFF734FF68B931461F
:100E98001D20FFF72FFF50B939461F20FFF72AFF03
:100EA80010B1082000E00820F8BD0820FCE7082061
:100EB800FAE700BF4823002008B5024601210020B8
:100EC800FFF7DEFD08BD30B583B005460023ADF859
:100ED80004308DF8063001AA03210720FFF7D0FD62
:100EE80088B904469DF806209DF805301B0243EAA0
:100EF80002439DF804001843FFF786FF85ED000ABA
:100F0800204603B030BD0824FAE710B582B0044685
:100F180000238DF80730FF238DF806300023009357
:100F28000DF10700FFF7C8FFD0B99DF80730602B17
:100F380018BF502B16D10DF1060201210220FFF730
:100F48009FFD90B99DF806308BB9FFF7ADFD80B9CC
:100F58006846FFF7B8FF30B92046FFF777FF02E091
:100F6800082000E0052002B010BD0820FBE706209D
:100F7800F9E70720F7E770B582B00546002300932C
:100F88000023ADF804308DF8063001AA03210420AF
:100F9800FFF776FDA8B906469DF806309DF805408E
:100FA800240244EA03449DF804301C436846FFF7D2
:100FB8008AFF2046FFF7B6FE85ED000A304602B0EC
:100FC80070BD0826FAE700B583B005238DF8073011
:100FD8000A2201210DF1070000F0F2FF03B05DF8CD
:100FE80004FB030C0B70030A4B70887070470000F9
:100FF80030B583B004238DF807300D4D00224FF42F
:101008008051284603F081FD0A2301220DF10701D2
:10101800084805F0A5FD044601224FF480512846F2
:1010280003F073FD14B9204603B030BD0824FAE775
:10103800000402587021002030B583B006238DF8D3
:1010480007300D4D00224FF48051284603F05DFD16
:101058000A2301220DF10701084805F081FD044625
:1010680001224FF48051284603F04FFD14B9204661
:1010780003B030BD0824FAE70004025870210020AC
:10108800F0B583B0044605238DF80330154E0022D1
:101098004FF48051304603F038FD134F0A230122E4
:1010A8000DF10301384605F05BFD05468DF8040097
:1010B8000A23012204F10F01384606F0C3F804465A
:1010C8008DF8050001224FF48051304603F01DFDD4
:1010D8002DB914B9204603B0F0BD0824FAE7082456
:1010E800F8E700BF0004025870210020F0B585B071
:1010F8008DF8070050238DF8083001238DF809304A
:10110800234B1B78DBB3234E00224FF4805130462B
:1011180003F0FBFC204C0A23012202A9204605F01B
:101128001FFD05468DF80C0001224FF48051304612
:1011380003F0EBFC00224FF48051304603F0E5FC4D
:101148000A2301220DF10901204605F009FD074691
:101158008DF80D000A2301220DF10701204605F044
:10116800FFFC04468DF80E0001224FF480513046F2
:1011780003F0CBFC3DB947B914B1082400E00524BD
:10118800204605B0F0BD0824FAE70824F8E700BFB8
:101198004E230020000402587021002000B585B0BD
:1011A800FF238DF80F306846FFF76AFF30B99DF8C6
:1011B8000F3013F0010F05D0012000E0012005B029
:1011C8005DF804FB0020FAE7014B01221A70704712
:1011D8004E230020014B00221A7070474E23002036
:1011E80038B50446407BDC2825D800F03800A37BBE
:1011F80043EA0005237BD3B9FFF7E6FF2046FFF754
:101208003FFFB8B9E37BFF2B17D0FFF7F1FEB0B96A
:101218002846FFF76BFFFFF7C1FF0028FBD12046E8
:10122800FFF72EFFE37BAB4204D00F2002E0FFF76D
:10123800D1FF002038BD0A20FCE70F20FAE70E2076
:10124800F8E70000F0B585B08DF8071002238DF897
:101258000B3002A94068FFF7C4FE204B1B7893B3FC
:10126800FFF7EAFE98BB1E4F00224FF48051384624
:1012780003F04BFC1B4C0A2301220DF10B01204605
:1012880005F06EFC05468DF80C000A23032202A91E
:10129800204605F065FC06468DF80D006423012202
:1012A8000DF10701204605F05BFC04468DF80E00A1
:1012B80001224FF48051384603F027FC4DB956B946
:1012C80014B1082400E00524204605B0F0BD092427
:1012D800FAE70824F8E70824F6E700BF4E230020C1
:1012E80000040258702100202DE9F04782B005461D
:1012F800AD238DF80330866869464068FFF771FEB4
:10130800564B1B78002B00F092802B78012B4AD08B
:10131800002B00F08E80FFF78FFE002840F08D80B4
:10132800DFF83C9100224FF48051484603F0EDFB72
:10133800DFF830810A2301220DF10301404605F050
:101348000FFC04468DF804000A2303226946404630
:1013580005F006FC07468DF805000A2302223146EF
:10136800404605F0FDFB80468DF8060001224FF44B
:101378008051484603F0C9FB002C60D1002F60D192
:10138800B8F1000F5FD14FF002092B784B453ADDD9
:101398000236FFF703FF60B1632C56D801340120F1
:1013A80003F04CFCF5E7AB6819782846FFF74AFFCD
:1013B80040E0DFF8ACA000224FF48051504603F023
:1013C800A4FBDFF8A0800A2301220DF103014046A7
:1013D80005F0C6FB07468DF804000A2302223146B1
:1013E800404605F0BDFB80468DF8050001224FF40C
:1013F8008051504603F089FB4FBBB8F1000F28D14C
:1014080009F10209C1E7FFF7C9FE0028FBD1FFF780
:10141800EFFD00BBFFF7C2FE0028FBD1287810F0D3
:10142800010007D071782846FFF70CFF02E005207D
:1014380000E00C2002B0BDE8F0870920FAE7082098
:10144800F8E70820F6E70820F4E70420F2E70B2085
:10145800F0E70B20EEE70D20ECE700BF4E2300205D
:1014680000040258702100202DE9F04184B005469F
:101478000E460B238DF80B3000248DF8074002A987
:101488004068FFF7AEFD22464FF48051224803F032
:101498003CFB224F0A2301220DF10B01384605F0CF
:1014A8005FFB04468DF80C000A23032202A9384684
:1014B80005F056FB80468DF80D000A2301220DF138
:1014C8000701384605F04CFB8DF80E00E4B90746D5
:1014D800B8F1000F1AD1D8B9B4420BD2A9680A23BF
:1014E800012221440D4805F0ADFE8DF80F0088B9A2
:1014F8000134F1E701224FF48051074803F005FB5E
:10150800384604B0BDE8F0810827F9E70827F7E76F
:101518000827F5E70827F3E70004025870210020A0
:1015280070B582B060238DF80730124B1B78DBB1A1
:10153800FFF782FD0446104E00224FF480513046DA
:1015480003F0E3FA0A2301220DF107010B4805F025
:1015580007FB054601224FF48051304603F0D5FAC7
:1015680035B914B1012400E00524204602B070BD4D
:101578000824FAE74E2300200004025870210020B6
:1015880070B5ADF5027D0C46460900F01F050D70DB
:101598004FF40072002101A807F01CFC81A96068C3
:1015A800FFF71FFD062E00F28880DFE806F004260C
:1015B8002D31535867000A22032181A800F00AFD43
:1015C80000287CD19DF804229DF805321B0243EACD
:1015D80002439DF806221343636029462046FFF71D
:1015E80043FF08B101250BE064222946A06800F0FA
:1015F800E7FC054620B1072502E0FFF7E5FD0025D9
:1016080028460DF5027D70BDFFF7E4FD0025F7E7DC
:101618000A22032181A800F0DDFC002851D19DF8A1
:1016280004229DF805321B0243EA02439DF8062274
:1016380013436360002606E0A0680A2201213044B3
:1016480000F0C8FC0136B542F6DC2046FFF74CFE38
:101658000546D5E72046FFF763FF0546D0E7204655
:10166800FFF70EFD05460A22012104F10F0000F0E4
:10167800A7FC40BB002DC3D00825C1E701ABA36080
:101688000023636005E0FEF73DFE636803F5007321
:1016980063606368B3F5002F0DD24FF400712046E4
:1016A800FFF7E2FE0028EED164224FF4007101A892
:1016B80000F086FCE9E70025A2E70325A0E7072557
:1016C8009EE707259CE707259AE7000008B5402113
:1016D800034803F013FA08B9012008BD0020FCE70D
:1016E800000C025808B54FF48041044803F006FA8C
:1016F80008B9012008BD0020FCE700BF0008025817
:1017080008B58021024803F0F9F900B1012008BDAD
:10171800000C025810B5FFF7F3FF60B90024FFF77B
:10172800D5FF08B144F00204FFF7DCFF08B144F02C
:101738000404204610BD0124F1E7000010B5FFF7AE
:10174800DFFF08B9452010BDFFF7C0FF08B94620E4
:10175800F9E70A4C01224021204603F0D6F90A2075
:1017680003F06CFA00224021204603F0CEF9FFF77F
:10177800ADFF08B94120E6E74720E4E7000C02582E
:1017880010B5FFF7BDFF08B9452010BDFFF7AAFF48
:1017980008B94820F9E70B4C01224FF400512046C4
:1017A80003F0B3F90A2003F049FA00224FF400517C
:1017B800204603F0AAF9FFF795FF08B94120E4E7AE
:1017C8004920E2E70008025808B5032807D0042892
:1017D80008D0022809D0FEF795FD002001E0FFF7A8
:1017E800ADFF08BDFFF7CCFFFBE7FFF793FFF8E776
:1017F80000B585B04FF0FF33029392B20192009189
:1018080001230246D021044803F050FC10B905B06A
:101818005DF804FB0520FAE77422002000B587B0C4
:1018280002468DF817100A230293012301930DF144
:1018380017010091D021044803F038FC10B907B013
:101848005DF804FB0520FAE77422002000B587B094
:1018580002468DF817100A230293012301930DF114
:10186800170100912021044803F020FC10B907B0AB
:101878005DF804FB0520FAE77422002000B585B066
:101888004FF0FF3302930192009101230246D021C9
:10189800044803F0E1FC10B905B05DF804FB07202B
:1018A800FAE700BF7422002000B585B00A2302932E
:1018B80001920091012302462021044803F0CCFC48
:1018C80010B905B05DF804FB0620FAE77422002081
:1018D80070B582B0044600238DF80730C17A01390B
:1018E800C1F38706017B0139CDB201214B20FFF7F7
:1018F800ADFF08B102B070BD052003F09FF90122C9
:101908000DF107014020FFF7CFFF0028F2D19DF825
:101918000730322B01D00A20ECE7A17AE37819438B
:101928004C20FFF793FF0028E4D131465120FFF700
:101938008DFF0028DED129465220FFF787FFD9E71F
:1019480010B582B00446062269460C20FFF796FFC0
:10195800A0B99DF801309DF8001041EA03219DF8D7
:1019680003309DF8022042EA03229DF805C09DF845
:10197800043043EA0C2321806280A38002B010BDAA
:1019880010B582B00446062269461220FFF776FF9A
:10199800A0B99DF801309DF8001041EA03219DF897
:1019A80003309DF8022042EA03229DF805C09DF805
:1019B800043043EA0C23E1802281638102B010BD28
:1019C80010B582B00446062269464220FFF76CFF34
:1019D80004280CD09DF8011049019DF803205201FC
:1019E8009DF80530DB01A181E2812382002002B04D
:1019F80010BD10B50446012201460020FFF73EFF46
:101A08002378242B00D0032010BD000070B584B0CB
:101A1800044600238DF80F308DF80E304278017996
:101A280086790A43164381784279114341F080054B
:101A38000093019302930DF10F00FFF7DAFF08B14D
:101A480004B070BD00217C20FFF7E8FE002850D1CB
:101A5800012003F0F3F800215920FFF7DFFE0028EA
:101A680049D14FF4005230495E20FFF7C1FE0028EB
:101A780043D101215920FFF7D1FE00283FD19620FC
:101A880003F0DCF801220DF10E012120FFF7F6FE2C
:101A9800B8BB9DF80E3013F0010F34D021787D20AB
:101AA800FFF7BCFE88BB31464020FFF7B7FE70BB8E
:101AB800217A4120FFF7B2FE58BB29464220FFF7A2
:101AC800ADFE40BB617A4320FFF7A8FE28BB022188
:101AD8007C20FFF7A3FE10BB0C2269461046FFF7D7
:101AE800CDFEF0B92046FFF7F3FE0028A8D00B2062
:101AF800A6E70820A4E70820A2E70820A0E7082016
:101B08009EE708209CE708209AE7092098E7092023
:101B180096E7092094E7092092E7092090E7092031
:101B28008EE709208CE700BF0000002008B50122DD
:101B38004FF46061014802F0E8FF08BD0000025858
:101B480008B5FFF7F3FF00224FF40061014802F0E7
:101B5800DCFF08BD0000025810B50446FFF7E6FF99
:101B6800032C1FD8DFE804F00209101700224FF4F5
:101B780080610E4802F0C9FF10BD00224FF40061D9
:101B88000A4802F0C2FFF7E700224FF40071074845
:101B980002F0BBFFF0E700224FF4C061034802F0F7
:101BA800B4FFE9E7FEF7AEFBE6E700BF0000025826
:101BB80030B4064C04EBC10CDCF804501D6014F87A
:101BC80031301844106030BC704700BF50230020EB
:101BD8002DE9F04782B082460F4616461D46DDF8CD
:101BE800288091F80090002488F8004001E0013432
:101BF800E4B2B4421AD26B4601AA49465046FFF7EE
:101C0800D7FF009A0199284607F0D6F898F800C03F
:101C18009DF800309C4488F800C0731E9C42E6D0B2
:101C280097F80190009B1D440137E0E702B0BDE83A
:101C3800F0870000164B00221A7002221A72042143
:101C4800197406201876082083F820000A2083F8E3
:101C580028000C2083F830000E2083F8380010206C
:101C680083F84000122083F84800142083F85000BD
:101C7800182083F858005A60DA605A61DA615A62AB
:101C8800DA625A63DA635A64DA645965D965704767
:101C9800502300202DE9F0410446FFF751FE064687
:101CA8002046FFF76DFE07462046FFF789FE80466F
:101CB8000023638204F11800FFF705F9054604F1D3
:101CC8001400FFF758F95EB967B9B8F1000F0BD1E6
:101CD800284310F0FF0001D1BDE8F0810920FBE79F
:101CE8000620F9E70720F7E70820F5E72DE9F84F80
:101CF80080460E4617460D780024A346A246A14604
:101D08006BE0B9F1000F65D14046FFF719FE0028D6
:101D180040F09D804FF001095CE0B9F1000F59D106
:101D28004046FFF70DFE002840F093804FF0010970
:101D380050E0B9F1000F4DD14046FFF701FE0028F1
:101D480040F089804FF0010944E0BAF1000F41D119
:101D58004046FFF715FE00287FD14FF0010A39E011
:101D6800BAF1000F36D14046FFF70AFE002876D1B7
:101D78004FF0010A2EE0BAF1000F2BD14046FFF7D1
:101D8800FFFD00286DD14FF0010A23E0BBF1000FE1
:101D980020D14046FFF714FE002864D14FF0010B14
:101DA80018E0BBF1000F15D14046FFF709FE0028E7
:101DB80048D14FF0010B0DE0BBF1000F0AD14046AE
:101DC800FFF7FEFD002850D14FF0010B02E0002381
:101DD800A8F8123016F8015F0134A74231DD0B2D47
:101DE80033D801A353F825F00B1D0008231D000864
:101DF8003B1D0008531D0008691D00087F1D0008D1
:101E0800951D0008AB1D0008C11D0008D71D00085E
:101E1800211E00083B1E000808F11800FFF753F8C0
:101E280028BB08F11400FFF7A6F80028D2D009252E
:101E380008E008F11800FFF746F80028CAD009257D
:101E480000E000252846BDE8F88F0B25FAE70625AF
:101E5800F8E70625F6E70625F4E70725F2E707255C
:101E6800F0E70725EEE70725ECE70725EAE7092568
:101E7800E8E700BF30B595B01C238DF81730002374
:101E88008DF816308DF80F30069307930893099351
:101E98000A930B930C930D930E930F931093119336
:101EA8001293139304938DF8143001285AD0022802
:101EB80078D10A2201210DF1160000F08BF80028D4
:101EC80074D128229DF8161004A800F083F8002881
:101ED8006ED10A2201210DF10F0000F07BF80446B3
:101EE800002867D19DF80F30F32B25D00C245AE039
:101EF8009DF8162004A90DA8FFF7F8FE044600284F
:101F08005CD10DF11703009306AB9DF8162004A9C8
:101F18000DA8FFF75DFE28229DF8171006A800F00F
:101F28004FF809E00A2201210DF10F0000F052F8E4
:101F38009DF80F30EF2BF5D19DF80F30742B32D070
:101F48000A2201210DF10F0000F044F8A0BB9DF812
:101F58000F30512BCCD0742BEED0442BE8D0FEF7A9
:101F6800D1F9E9E70A2201210DF1170000F028F85C
:101F78000DA8FFF78FFE05460DF1180E0DF1340C74
:101F8800BCE80F00AEE80F009CE807008EE80700E9
:101F98002C460DB10E2406E028221C2106A800F0CC
:101FA8000FF800E00124204615B030BD0A24FAE7F6
:101FB8000A24F8E70A24F6E70A24F4E70D24F2E7EE
:101FC80008B513468AB20146014804F082FA08BDF2
:101FD8009420002008B513468AB20146054804F04B
:101FE800E5FA034610B1032802D10223184608BDBA
:101FF8000123FBE794200020FEE7FEE7FEE7FEE76B
:10200800FEE770477047704708B502F005FE08BD47
:1020180082B0074BD3F8F42042F00202C3F8F42050
:10202800D3F8F43003F002030193019B02B0704728
:102038000044025810B5B8B00446002133913491D9
:10204800359136913791BC2204A806F0C3FE236867
:10205800344A934204D0344A934231D038B010BD48
:102068000823049304A801F041F930BB2F4CD4F89D
:10207800E03043F00203C4F8E030D4F8E03003F075
:1020880002030093009BC02333931223349300234D
:10209800359336930423379333A9254802F01EFC61
:1020A800D4F8E83043F40013C4F8E830D4F8E83042
:1020B80003F400130193019BD0E7FEF723F9D5E75A
:1020C8000823049304A801F011F938BB174CD4F87D
:1020D800E03043F00203C4F8E030D4F8E03003F015
:1020E80002030293029B4FF4406333931223349309
:1020F8000023359336930423379333A90C4802F011
:10210800EDFBD4F8E83043F48003C4F8E830D4F8A1
:10211800E83003F480030393039B9FE7FEF7F2F88C
:10212800D4E700BF00540040005800400044025863
:102138000004025870B588B00023039304930593F4
:10214800069307930268224B9A4201D008B070BDEB
:10215800204BD3F8D42042F48032C3F8D420D3F8EB
:10216800D42002F480320092009AD3F8E02042F0A2
:102178000402C3F8E020D3F8E02002F00402019240
:10218800019AD3F8E02042F00802C3F8E020D3F81F
:10219800E03003F008030293029B4FF4F8530393D3
:1021A80002260496032506950C2407940DEB0401DA
:1021B800094802F093FB0423039304960023059334
:1021C800069507940DEB0401044802F087FBBDE770
:1021D800007000520044025800080258000C0258CF
:1021E80010B5B6B004460021319132913391349143
:1021F8003591BC2202A806F0EDFD2268204B9A42D8
:1022080001D036B010BD4FF48052029202230393DE
:10221800102104910421059106930793C023089384
:10222800199202A801F062F838BB164BD3F8E820DF
:1022380042F48042C3F8E820D3F8E82002F4804250
:102248000092009AD3F8E02042F00202C3F8E0209E
:10225800D3F8E03003F002030193019B4FF460438D
:102268003193022332930023339334930523359318
:1022780031A9054802F032FBC3E7FEF743F8D4E77B
:1022880000380040004402580004025802680A4B13
:102298009A4200D0704782B0084BD3F8E82042F049
:1022A8000402C3F8E820D3F8E83003F004030193EC
:1022B800019B02B0704700BF00080040004402586C
:1022C80000B587B000230193029303930493059309
:1022D80002680F4B9A4202D007B05DF804FB0D4B21
:1022E800D3F8E02042F00802C3F8E020D3F8E03049
:1022F80003F008030093009B4FF4804301930223EB
:102308000293059301A9044802F0E8FAE4E700BF44
:102318000008004000440258000C025810B5B6B03E
:102328000446002131913291339134913591BC2288
:1023380002A806F04FFD22681A4B9A4201D036B027
:1023480010BD0123029302A800F0D0FF30BB164B4A
:10235800D3F8F02042F02002C3F8F020D3F8F020A0
:1023680002F020020092009AD3F8E02042F0040222
:10237800C3F8E020D3F8E03003F004030193019B95
:10238800C0233193022332930023339334930723DA
:10239800359331A9054802F0A1FAD0E7FDF7B2FF5D
:1023A800D5E700BF00140140004402580008025855
:1023B800274AD2F8883043F47003C2F88830254B96
:1023C8001B6803F00F03062B06D8224A136823F074
:1023D8000F0343F0070313601F4B1A6842F0010212
:1023E8001A6000221A6119681C4A0A401A60194BBF
:1023F8001B6813F0080F06D0164A136823F00F0362
:1024080043F007031360144B00229A61DA611A62E1
:10241800134999621349D962134919635A63996335
:10242800DA6319645A64196821F4802119601A66FC
:102438000E4B1A680E4B1340B3F1005F03D20D4BDD
:102448000122C3F808210C4B43F2D2021A607047EC
:1024580000ED00E000200052004402587FEDF6EA4B
:10246800000202020000FF01800201010010005C6E
:102478000000FFFF0080005100400052002804DBEC
:102488000901C9B2044B1954704700F00F00090143
:10249800C9B2024B1954704700E400E014ED00E0A3
:1024A80000B500F00700C0F1070CBCF1040F28BF0D
:1024B8004FF0040C031D062B0FD9C31E4FF0FF3E2F
:1024C8000EFA0CF021EA000199400EFA03FE22EA06
:1024D8000E0241EA02005DF804FB0023EEE700006B
:1024E8000649CB6823F4E0631B041B0C000200F4CC
:1024F800E0600343024A1A43CA60704700ED00E0F7
:102508000000FA0510B50446054BD868C0F3022050
:10251800FFF7C6FF01462046FFF7B0FF10BD00BF1A
:1025280000ED00E00138B0F1807F0BD24FF0E023DE
:102538005861054AF02182F823100020986107228B
:102548001A6170470120704700ED00E0002800F094
:10255800188338B50446036813F0010F25D0944A50
:10256800136903F03803926A102B15D0182B0FD07B
:102578006368B3F5803F3FD0002B53D18C4B1A686A
:1025880022F480321A601A6822F480221A6038E035
:1025980002F00302022AEBD1854B1B6813F4003FBB
:1025A80003D06368002B00F0EE82236813F0020F5B
:1025B80000F0A1807E4A1369926A13F038035AD05A
:1025C800182B55D0E368002B00F0DE8078490A68A4
:1025D80022F0190213430B6002F02AFB0546744BE4
:1025E8001B6813F0040F40F0AD8002F021FB401B84
:1025F8000228F4D90320CDE26D4A136843F48033EE
:10260800136063682BB302F013FB0546684B1B6825
:1026180013F4003FC9D102F00BFB401B6428F5D925
:102628000320B7E2B3F5A02F09D0614B1A6822F452
:1026380080321A601A6822F480221A60E1E75C4B43
:102648001A6842F480221A601A6842F480321A60CA
:10265800D7E702F0EDFA0546554B1B6813F4003F27
:10266800A3D002F0E5FA401B6428F5D9032091E2D3
:1026780012F0030FA6D14E4B1B6813F0040F03D0C2
:10268800E368002B00F08182494A136823F019039C
:10269800E1680B43136002F0CBFA0546444B1B6814
:1026A80013F0040F06D102F0C3FA401B0228F5D933
:1026B80003206FE202F0D6FA41F20303984212D8DF
:1026C8002269402A07D03A494B6823F47C3343EA0D
:1026D80002334B600FE0364A536823F47C3343F4EB
:1026E8000033536007E0324A536823F0FE43216900
:1026F80043EA01635360236813F0100F00F08880E9
:102708002B4A136903F03803926A082B56D0182B0A
:1027180050D0E369002B00F0B880254A136843F0D5
:102728008003136002F084FA0546214B1B6813F4FA
:10273800807F40F0888002F07BFA401B0228F4D9A1
:10274800032027E202F08EFA41F20303984212D8DE
:102758002269402A07D016494B6823F47C3343EAA0
:1027680002334B60C7E7124A536823F47C3343F4BF
:1027780000335360BFE70E4A536823F0FE432169D4
:1027880043EA01635360B6E7094A136823F001037B
:10279800136002F04DFA0546054B1B6813F0040F51
:1027A800A9D002F045FA401B0228F5D90320F1E12F
:1027B8000044025802F00302012AAAD1A14B1B6867
:1027C80013F4807F03D0E369802B40F0E08102F0AE
:1027D80049FA41F20303984212D8226A202A07D004
:1027E80098494B6823F0F84343EA82634B600FE053
:1027F800944A536823F0F84343F08043536007E05A
:10280800904AD36823F07C53216A43EA0163D3607A
:10281800236813F0080F60D06369002B49D0894AF8
:10282800536F43F00103536702F002FA0546854BE4
:102838005B6F13F0020F50D102F0FAF9401B022827
:10284800F5D90320A6E102F00DFA41F203039842FC
:1028580012D8226A202A07D07A494B6823F0F84315
:1028680043EA82634B60D3E7764A536823F0F84320
:1028780043F080435360CBE7724AD36823F07C531C
:10288800216A43EA0163D360C2E76E4A136823F002
:102898008003136002F0CCF905466A4B1B6813F4F9
:1028A800807FB5D002F0C4F9401B0228F5D9032077
:1028B80070E1644A536F23F00103536702F0B8F9DB
:1028C8000546604B5B6F13F0020F06D002F0B0F9BB
:1028D800401B0228F5D903205CE1236813F0200F80
:1028E80029D0A3699BB1574A136843F480531360F6
:1028F80002F09EF90546534B1B6813F4005F1AD18A
:1029080002F096F9401B0228F5D9032042E14D4A0E
:10291800136823F48053136002F08AF90546494B83
:102928001B6813F4005F06D002F082F9401B0228EE
:10293800F5D903202EE1236813F0040F21D1636A2F
:10294800002B00F026813F4A126902F03802182A4B
:1029580000F0EE80022B79D03A4A136823F0807396
:10296800136002F065F90446364B1B6813F0007FCC
:1029780000F0DC8002F05CF9001B0228F4D9032087
:1029880008E1314A136843F48073136002F050F988
:1029980005462D4B1B6813F4807F06D102F048F9D9
:1029A800401B6428F5D90320F4E0A368012B0AD062
:1029B8000BBB244B1A6F22F001021A671A6F22F020
:1029C80004021A6704E01F4A136F43F001031367F8
:1029D800A36833B302F02CF905461A4B1B6F13F0AA
:1029E800020FACD102F024F9401B41F2883398421F
:1029F800F3D90320CEE0052B09D0124B1A6F22F031
:102A080001021A671A6F22F004021A67E0E70D4BF9
:102A18001A6F42F004021A671A6F42F001021A672D
:102A2800D6E702F005F90546064B1B6F13F0020FB7
:102A380085D002F0FDF8401B41F288339842F3D963
:102A48000320A7E00044025800480258594A136876
:102A580023F08073136002F0EBF80546554B1B68B2
:102A680013F0007F06D002F0E3F8401B0228F5D9E6
:102A780003208FE04F4B996A4F4A0A40A16AE06AE7
:102A880041EA00110A439A62226B013AC2F3080232
:102A9800616B0139490289B20A43A16B0139090402
:102AA80001F4FE010A43E16B0139090601F0FE4118
:102AB8000A431A63DA6A22F00102DA62596B3F4A62
:102AC8000A40A16C42EAC1025A63DA6A22F00C0297
:102AD800216C0A43DA62DA6A22F00202616C0A4364
:102AE800DA62DA6A42F48032DA62DA6A42F400328E
:102AF800DA62DA6A42F48022DA62DA6A42F00102C1
:102B0800DA621A6842F080721A6002F091F804469C
:102B1800284B1B6813F0007F06D102F089F8001BD0
:102B28000228F5D9032035E0002033E0002031E009
:102B3800204A916A106B012B2DD001F00303A26A81
:102B480093422AD1C1F30511E36A994227D1C0F310
:102B58000802236B013B9A4223D1C0F34622636BE0
:102B6800013B9A421FD1C0F30642A36B013B9A4234
:102B78001BD1C0F30660E36B013B984217D10020DC
:102B880008E001207047012004E0012002E0012054
:102B980000E0002038BD0120FCE70120FAE7012011
:102BA800F8E70120F6E70120F4E70120F2E7012029
:102BB800F0E700BF004402580CFCFFFF0700FFFFCE
:102BC800744B1B6903F03803102B00F0DE80182BC0
:102BD8000FD00BB1704870476E4B1B6813F0200F75
:102BE80000F0D5806B4B1B68C3F3C1036B48D8401A
:102BF800704710B4674B9A6A02F003029C6AC4F3E8
:102C08000510D96A01F001015B6BC3F3CC0301FB2A
:102C180003F307EE903AF8EE677A14F47C7F00F03D
:102C28009480012A66D0022A00F09280E2B107EE71
:102C3800100AF8EE476A9FED5A6A86EE267A554BD7
:102C48001B6BC3F3080306EE903AF8EE666A9FED35
:102C5800556A67EE867A76EEA77AF7EE006A77EE1F
:102C6800A67A27EE277A61E04A4B1B6813F0200FFB
:102C780023D048490A68C2F3C102484BD34007EE43
:102C8800103AF8EE476A07EE100AB8EE476A86EE81
:102C9800867A0B6BC3F3080306EE903AF8EE666A81
:102CA8009FED406A67EE867A76EEA77AF7EE006ABD
:102CB80077EEA67A27EE277A38E007EE100AF8EEC4
:102CC800476A9FED396A86EE267A324B1B6BC3F34F
:102CD800080306EE903AF8EE666A9FED326A67EEF0
:102CE800867A76EEA77AF7EE006A77EEA67A27EE6E
:102CF800277A1BE007EE100AF8EE476A9FED286A6C
:102D080086EE267A234B1B6BC3F3080306EE903A34
:102D1800F8EE666A9FED236A67EE867A76EEA77A02
:102D2800F7EE006A77EEA67A27EE277A194B1B6B27
:102D3800C3F34623013307EE903AF8EE677AC7EEFD
:102D4800276AFCEEE67A17EE900A5DF8044B7047A6
:102D580007EE100AF8EE476A9FED146A86EE267AA7
:102D68000C4B1B6BC3F3080306EE903AF8EE666A49
:102D78009FED0C6A67EE867A76EEA77AF7EE006A20
:102D880077EEA67A27EE277AD0E7094870470348F6
:102D9800704700BF0044025800093D000090D0036E
:102DA8000024744A000000390024744C001BB74BFF
:102DB80000366E01002800F0328170B50D460446D9
:102DC8009B4B1B6803F00F038B420BD2984A136886
:102DD80023F00F030B431360136803F00F038B42B8
:102DE80040F01F81236813F0040F0CD02269914B27
:102DF8009B6903F070039A4205D98E498B6923F0C9
:102E080070031A438A61236813F0080F0CD06269B3
:102E1800884BDB6903F070039A4205D98549CB6971
:102E280023F070031A43CA61236813F0100F0CD003
:102E3800A269804BDB6903F4E0639A4205D97D49B6
:102E4800CB6923F4E0631A43CA61236813F0200FA7
:102E58000CD0E269774B1B6A03F070039A4205D9DC
:102E680074490B6A23F070031A430A62236813F04B
:102E7800020F0CD0E2686F4B9B6903F00F039A4274
:102E880005D96C498B6923F00F031A438A612368BB
:102E980013F0010F41D0674A936923F47063A16866
:102EA8000B4393616368022B0AD0032B27D0012BB5
:102EB8002CD0604A126812F0040F06D10120ADE050
:102EC800126812F4003F00F0AE805A490A6922F0F5
:102ED800070213430B6101F0ABFE0646554B1B6915
:102EE80003F038036268B3EBC20F16D001F0A0FEFE
:102EF800801B41F288339842F0D903208EE04D4A76
:102F0800126812F0007FE0D1012087E0494A126878
:102F180012F4807FD9D1012080E0236813F0020FDA
:102F28000CD0E268434B9B6903F00F039A4205D229
:102F380040498B6923F00F031A438A613C4B1B6895
:102F480003F00F03AB420AD9394A136823F00F0381
:102F58002B431360136803F00F03AB4265D123685A
:102F680013F0040F0CD02269324B9B6903F07003F5
:102F78009A4205D22F498B6923F070031A438A615C
:102F8800236813F0080F0CD062692A4BDB6903F041
:102F980070039A4205D22749CB6923F070031A437C
:102FA800CA61236813F0100F0CD0A269214BDB69AA
:102FB80003F4E0639A4205D21E49CB6923F4E06327
:102FC8001A43CA61236813F0200F0CD0E269194B29
:102FD8001B6A03F070039A4205D216490B6A23F064
:102FE80070031A430A62FFF7EBFD12498B69C3F3BA
:102FF8000323114AD35C03F01F03D8408B6903F005
:103008000F03D35C03F01F0320FA03F30B4A13608A
:103018000B4B18600B4B186801F0A8FD70BD012020
:1030280070470120FAE70120F8E70120F6E700BF22
:103038000020005200440258789400080020002024
:10304800042000200C20002008B5FFF7B9FD0B4A2A
:103058009369C3F303230A49CB5C03F01F0320FAE7
:1030680003F3926902F00F02885C00F01F0023FA54
:1030780000F0044A1060044A136008BD0044025876
:1030880078940008002000200420002008B5FFF7ED
:10309800DBFF054BDB69C3F30213044AD35C03F07F
:1030A8001F03D84008BD00BF0044025878940008A8
:1030B80008B5FFF7C9FF054BDB69C3F30223044AD0
:1030C800D35C03F01F03D84008BD00BF004402587A
:1030D80078940008404B9B6A03F00303032B79D0D4
:1030E80070B505460E463C4A136823F080631360AA
:1030F80001F09EFD0446384B1B6813F0006F06D0A4
:1031080001F096FD031B022BF5D9032070BD324B4D
:103118009A6A22F47C32296842EA01329A626A6821
:10312800013AC2F30802A9680139490289B20A437F
:10313800E9680139090401F4FE010A4329690139E2
:10314800090601F0FE410A439A63DA6A22F0C002D6
:1031580069690A43DA62DA6A22F02002A9690A4335
:10316800DA62DA6A22F01002DA62D96B1B4A0A4084
:10317800E96942EAC102DA63DA6A42F01002DA6205
:10318800C6B91A46DB6A43F40023D362124A1368AD
:1031980043F08063136001F04BFD04460E4B1B683F
:1031A80013F0006F14D101F043FD001B0228F5D97C
:1031B8000320ABE7012E05D0074AD36A43F4001376
:1031C800D362E3E7044AD36A43F48013D362DDE7AA
:1031D80000209BE701207047004402580700FFFFCA
:1031E800404B9B6A03F00303032B79D070B5054667
:1031F8000E463C4A136823F08053136001F018FD13
:103208000446384B1B6813F0005F06D001F010FD30
:10321800031B022BF5D9032070BD324B9A6A22F0AA
:103228007C72296842EA01529A626A68013AC2F3DA
:103238000802A9680139490289B20A43E9680139D3
:10324800090401F4FE010A4329690139090601F05C
:10325800FE410A431A64DA6A22F4406269690A4341
:10326800DA62DA6A22F40072A9690A43DA62DA6A6F
:1032780022F48072DA62596C1B4A0A40E96942EA10
:10328800C1025A64DA6A42F48072DA62C6B91A462E
:10329800DB6A43F48003D362124A136843F0805315
:1032A800136001F0C5FC04460E4B1B6813F0005F69
:1032B80014D101F0BDFC001B0228F5D90320ABE7AF
:1032C800012E05D0074AD36A43F08073D362E3E73F
:1032D800044AD36A43F40003D362DDE700209BE786
:1032E80001207047004402580700FFFFF8B5044664
:1032F800036813F0006F30D0436EB3F5001F26D07B
:103308000ED8EBB1B3F5801F07D102210430FFF7C7
:10331800E1FE054645B12E4621E0012635461EE070
:10332800B3F5401F09D10025954A136D23F44013C6
:10333800616E0B431365002611E0012635460EE049
:103348008F4AD36A43F40033D3620025ECE70221A5
:103358002430FFF745FF0546DCE70026354623689D
:1033680013F4807F14D0636D042B30D8DFE803F0AA
:10337800032228080800824AD36A43F40033D36240
:1033880045BB7F4A136D23F00703616D0B4313653B
:10339800236813F4007F2FD0A36D802B49D01ED84B
:1033A800002B40D0402B17D10021201DFFF792FEA3
:1033B800054619E00021201DFFF78CFE0546DFE7D2
:1033C800002104F12400FFF70BFF0546D8E701268A
:1033D8003546DDE72E46DBE7012635460CE0C02BF7
:1033E80002D0B3F5807F1BD155BB654A136D23F41A
:1033F800E073A16D0B431365236813F4806F45D008
:10340800D4F8A430B3F5800F38D01ED883B3B3F501
:10341800001F17D10021201DFFF75CFE05461AE0AA
:1034280001263546E8E7564AD36A43F40033D362A7
:10343800DAE7002104F12400FFF7D2FE0546D3E7BE
:103448002E46D9E70126354620E0B3F5C00F02D055
:10345800B3F5000F09D1C5B9494A936D23F4600348
:10346800D4F8A4100B43936510E0012635460DE00F
:10347800434AD36A43F40033D362ECE7002104F1F2
:103488002400FFF7ADFE0546E5E72E46236813F452
:10349800006F23D0D4F8A830B3F1007F41D00DD805
:1034A800002B38D0B3F1807F05D10021201DFFF714
:1034B80011FE054608E0012635460FE0B3F1407FCE
:1034C80002D0B3F1806F23D1002D31D12C4A936DF6
:1034D80023F0E063D4F8A8100B439365236813F036
:1034E800007F2ED0A36C202B3FD026D833B1102BD1
:1034F80020D1234AD36A43F40033D362002D3AD152
:103508001F4AD36C23F03003A16C0B43D36418E03B
:1035180001263546E2E71A4AD36A43F40033D362F8
:10352800D2E7002104F12400FFF75AFE0546CBE755
:103538002E46D3E70126354603E0302BDED00126A0
:103548003546236813F4805F2BD0E36DB3F5005F35
:103558004CD017D8002B43D0B3F5805F0DD1002194
:10356800201DFFF7B7FD054612E00221201DFFF7D9
:10357800B1FD0546C2E72E46E3E70126354610E0D1
:1035880000440258B3F5405F02D0B3F5804F24D110
:10359800002D32D1754A136D23F4E043E16D0B43DE
:1035A8001365236813F4005F37D0236EB3F5003F2B
:1035B80051D027D83BB1B3F5803F20D10121201D40
:1035C800FFF788FD0546002D4CD1684A136D23F49A
:1035D800E023216E0B4313651FE001263546E0E723
:1035E800624AD36A43F40033D362D1E7002104F17D
:1035F8002400FFF7F5FD0546CAE72E46D1E7012668
:1036080035460AE0B3F5802FDDD0B3F5A02FDAD028
:10361800B3F5403FD7D001263546236813F4804FD1
:1036280030D0D4F8AC30B3F1005F44D01FD83BB1F0
:10363800B3F1805F18D10121201DFFF74BFD05462E
:10364800002D3FD1494A936D23F0E043D4F8AC10E4
:103658000B43936516E0012104F12400FFF7C0FD38
:103668000546B0E72E46D8E7012635460AE0B3F10D
:10367800804FE5D0B3F1A04FE2D0B3F1405FDFD087
:1036880001263546236813F4004F09D0E36EB3F1E1
:10369800805F19D0B3F1005F24D0D3B1012635463D
:1036A800236813F0807F32D0636C032B59D8DFE88E
:1036B80003F026215226012104F12400FFF790FD92
:1036C8000546BDE72E46DDE7284AD36A43F40033B2
:1036D800D3626DB9254A136D23F04053E16E0B4355
:1036E8001365DDE70121201DFFF7F4FC0546F0E72F
:1036F8002E46D5E71D4AD36A43F40033D3629DBBF7
:103708001A4AD36C23F00303616C0B43D364236818
:1037180013F4800F2CD1236813F0010F00F0A3805D
:10372800A36F282B00F29D80DFE803F08B9B9B9B07
:103738009B9B9B9B869B9B9B9B9B9B9B949B9B9BED
:103748009B9B9B9B8B9B9B9B9B9B9B9B8B9B9B9BE1
:103758009B9B9B9B8B000221201DFFF7BBFC054612
:10376800CDE701263546D2E72E46D0E70044025879
:103778008F4A136843F48073136001F059FA0746BF
:103788008B4B1B6813F4807F05D101F051FAC01BE5
:103798006428F5D90325002D4AD1864B1B6FD4F830
:1037A800B020534013F4407F0CD0824B1A6F22F4A0
:1037B8004072196F41F480311967196F21F4803113
:1037C80019671A67D4F8B030B3F5807F15D08DBB70
:1037D800D4F8B03003F44072B2F5407F1ED0754A79
:1037E800136923F47C53136172490B6FD4F8B0202A
:1037F800C2F30B0213430B678DE701F019FA074672
:103808006C4B1B6F13F0020FE1D101F011FAC01BD2
:1038180041F288339842F3D90325D8E7654802690D
:1038280022F47C52644901EA131313430361DBE772
:103838002E4670E72E466EE70121201DFFF74AFC51
:103848000546E5B95B4A536D23F03803A16F0B4376
:10385800536508E0012104F12400FFF7C1FC054687
:10386800EFE701263546236813F0020F16D0636F81
:10387800052B27D8DFE803F00A051F0A0A0A2E4697
:10388800F1E70121201DFFF725FC0546EDB9494A5E
:10389800536D23F00703616F0B435365236813F0DF
:1038A800040F22D0D4F89030052B43D8DFE803F07A
:1038B800140F3B141414012104F12400FFF790FCA9
:1038C8000546E3E701263546E8E72E46E6E7012107
:1038D800201DFFF7FFFB05467DBB364A936D23F09D
:1038E8000703D4F890100B439365236813F0200F57
:1038F80033D0D4F88C30B3F1005F4CD022D83BB130
:10390800B3F1805F1BD10021201DFFF7E3FB0546C3
:10391800002D47D1274A536D23F0E043D4F88C108B
:103928000B43536519E0012104F12400FFF758FC0B
:103938000546D1E701263546D7E72E46D5E70126C5
:1039480035460AE0B3F1804FE2D0B3F1A04FDFD0A3
:10395800B3F1405FDCD001263546236813F0400FF1
:1039680037D0D4F89830B3F5006F52D026D83BB191
:10397800B3F5806F18D10021201DFFF7ABFB05467A
:10398800002D4DD10B4A936D23F4E053D4F89810D1
:103998000B4393651DE0022104F12400FFF720FC8E
:1039A8000546B5E72E46D8E70126354611E000BFA3
:1039B8000048025800440258CFFFFF00B3F5805F6B
:1039C800DED0B3F5A05FDBD0B3F5406FD8D00126C9
:1039D8003546236813F0800F32D0D4F89C30B3F505
:1039E800804F00F09D8020D83BB1B3F5005F19D11E
:1039F8000021201DFFF76EFB0546002D40F0978043
:103A0800A54A936D23F46043D4F89C100B43936547
:103A180016E0022104F12400FFF7E2FB0546AFE7B8
:103A28002E46D6E7012635460AE0B3F5004FE4D026
:103A3800B3F5204FE1D0B3F5C04FDED001263546AF
:103A4800236813F0080F0CD0D4F88030B3F5805FEA
:103A58006FD0914A536D23F44053D4F880100B4330
:103A68005365236813F0100F0CD0D4F89430B3F5D5
:103A7800807F67D0884A936D23F44073D4F89410FC
:103A88000B439365236813F4002F0BD0D4F8A030B0
:103A9800B3F5803F6ED0B3F5003F61D0002B5AD00C
:103AA80001263546236813F4802F0CD0D4F88430CF
:103AB800B3F5001F76D0B3F5401F69D0B3F5801F6A
:103AC80061D001263546236813F4803F07D0E36CA4
:103AD800002B70D0B3F5803F7BD001263546236894
:103AE80013F0005F7DD1236813F4003F00F0868057
:103AF800E36FB3F5807F00F0C6807CD9B3F5007F13
:103B080003D0B3F5407F40F0BC80002D40F0C18069
:103B1800614A536D23F44073E16F0B4353656DE0C5
:103B2800022104F12400FFF75BFB054665E72E46FA
:103B380086E7022104F12400FFF752FB002888D011
:103B4800012686E7022104F12400FFF749FB00283B
:103B580090D001268EE70021201DFFF7BBFA05460D
:103B68007DB94D4A936D23F44033D4F8A0100B432C
:103B7800936597E7022104F12400FFF731FB05461E
:103B8800EEE72E468EE7444AD36A43F40033D36205
:103B98007DB9414A536D23F44013D4F884100B4384
:103BA800536590E7012104F12400FFF719FB05464E
:103BB800EEE72E4687E7384AD36A43F40033D362E8
:103BC8006DB9354AD36C23F48033E16C0B43D3646D
:103BD80085E70221201DFFF77DFA0546F0E72E460E
:103BE8007DE7022104F12400FFF7FAFA00283FF4E8
:103BF8007AAF012677E7002B87D00126236813F4D4
:103C0800801F06D0244A136D23F00043216F0B4315
:103C18001365236813F0805F07D01F4A136923F4E4
:103C28008043D4F8B4100B431361236813F4001FC6
:103C380006D0194A136D23F08073A16E0B431365E8
:103C4800236813F0804F09D0134B1A6922F40042FD
:103C58001A611A69D4F8B8100A431A612368002B4C
:103C68001CDB236813F4000F07D00B4A536D23F4B1
:103C78004003D4F888100B43536506B1012630463B
:103C8800F8BD0126BAE7044AD36A43F40033D36285
:103C98003BE72E46B2E700BF00440258034AD36C04
:103CA80023F04053216D0B43D364DAE700440258F4
:103CB80008B5FFF7C9F9054B1B6AC3F30213044A99
:103CC800D35C03F01F03D84008BD00BF004402586E
:103CD8007894000810B4784B9A6A9C6AC4F3053C3F
:103CE800D96AC1F30011DB6BC3F3CC0301FB03F307
:103CF80014F47C3F00F0DB8002F0030207EE903AF8
:103D0800F8EE677A012A66D0022A00F0B380E2B1A1
:103D180007EE10CAF8EE476A9FED686A86EE267AC3
:103D2800654B9B6BC3F3080306EE903AF8EE666AA0
:103D38009FED636A67EE867A76EEA77AF7EE006AF9
:103D480077EEA67A27EE277A61E05B4B1B6813F0C3
:103D5800200F23D058490A68C2F3C102594BD340F7
:103D680007EE103AF8EE476A07EE10CAB8EE476A4F
:103D780086EE867A8B6BC3F3080306EE903AF8EE6C
:103D8800666A9FED4F6A67EE867A76EEA77AF7EE57
:103D9800006A77EEA67A27EE277A38E007EE10CA8F
:103DA800F8EE476A9FED486A86EE267A424B9B6B8F
:103DB800C3F3080306EE903AF8EE666A9FED406A90
:103DC80067EE867A76EEA77AF7EE006A77EEA67A3D
:103DD80027EE277A1BE007EE10CAF8EE476A9FED38
:103DE800376A86EE267A344B9B6BC3F3080306EEDC
:103DF800903AF8EE666A9FED326A67EE867A76EE5A
:103E0800A77AF7EE006A77EEA67A27EE277A2A4A8B
:103E1800936BC3F3462307EE903AF8EE677AF7EE12
:103E2800006A77EEA67A87EE276ABCEEC66A80ED4E
:103E3800006A936BC3F3064307EE903AF8EE677A8D
:103E480077EEA67A87EE276ABCEEC66A80ED016A2D
:103E5800936BC3F3066307EE903AF8EE677A77EE52
:103E6800A67AC7EE276AFCEEE66AC0ED026A5DF83C
:103E7800044B704707EE10CAF8EE476A9FED136AC5
:103E880086EE267A0C4B9B6BC3F3080306EE903A3A
:103E9800F8EE666A9FED0A6A67EE867A76EEA77A8A
:103EA800F7EE006A77EEA67A27EE277AAFE70023C7
:103EB800036043608360DAE7004402580024744AD0
:103EC800000000390090D0030024744C001BB74B4D
:103ED80010B4784B9A6A9C6AC4F3055CD96AC1F33A
:103EE80000215B6CC3F3CC0301FB03F314F07C7F6C
:103EF80000F0DB8002F0030207EE903AF8EE677AF2
:103F0800012A66D0022A00F0B380E2B107EE10CA97
:103F1800F8EE476A9FED686A86EE267A654B1B6C59
:103F2800C3F3080306EE903AF8EE666A9FED636AFB
:103F380067EE867A76EEA77AF7EE006A77EEA67ACB
:103F480027EE277A61E05B4B1B6813F0200F23D024
:103F580058490A68C2F3C102594BD34007EE103AD8
:103F6800F8EE476A07EE10CAB8EE476A86EE867A18
:103F78000B6CC3F3080306EE903AF8EE666A9FED01
:103F88004F6A67EE867A76EEA77AF7EE006A77EEE2
:103F9800A67A27EE277A38E007EE10CAF8EE476AC5
:103FA8009FED486A86EE267A424B1B6CC3F30803E2
:103FB80006EE903AF8EE666A9FED406A67EE867AFA
:103FC80076EEA77AF7EE006A77EEA67A27EE277ADA
:103FD8001BE007EE10CAF8EE476A9FED376A86EED7
:103FE800267A344B1B6CC3F3080306EE903AF8EEBE
:103FF800666A9FED326A67EE867A76EEA77AF7EE02
:10400800006A77EEA67A27EE277A2A4A136CC3F35A
:10401800462307EE903AF8EE677AF7EE006A77EEF5
:10402800A67A87EE276ABCEEC66A80ED006A136C32
:10403800C3F3064307EE903AF8EE677A77EEA67A6E
:1040480087EE276ABCEEC66A80ED016A136CC3F37B
:10405800066307EE903AF8EE677A77EEA67AC7EE2F
:10406800276AFCEEE66AC0ED026A5DF8044B704709
:1040780007EE10CAF8EE476A9FED136A86EE267AB5
:104088000C4B1B6CC3F3080306EE903AF8EE666A15
:104098009FED0A6A67EE867A76EEA77AF7EE006AEF
:1040A80077EEA67A27EE277AAFE70023036043600E
:1040B8008360DAE7004402580024744A000000399B
:1040C8000090D0030024744C001BB74B10B4784BFD
:1040D8009A6A9C6AC4F3051CD96A01F001015B6BFA
:1040E800C3F3CC0301FB03F314F47C7F00F0DB8003
:1040F80002F0030207EE903AF8EE677A012A66D0DA
:10410800022A00F0B380E2B107EE10CAF8EE476A5F
:104118009FED686A86EE267A654B1B6BC3F308032E
:1041280006EE903AF8EE666A9FED636A67EE867A65
:1041380076EEA77AF7EE006A77EEA67A27EE277A68
:1041480061E05B4B1B6813F0200F23D058490A68C5
:10415800C2F3C102594BD34007EE103AF8EE476A52
:1041680007EE10CAB8EE476A86EE867A0B6BC3F381
:10417800080306EE903AF8EE666A9FED4F6A67EE1E
:10418800867A76EEA77AF7EE006A77EEA67A27EEB9
:10419800277A38E007EE10CAF8EE476A9FED456ABD
:1041A80086EE267A424B1B6BC3F3080306EE903A61
:1041B800F8EE666A9FED406A67EE867A76EEA77A31
:1041C800F7EE006A77EEA67A27EE277A1BE007EE6D
:1041D80010CAF8EE476A9FED3A6A86EE267A344BA3
:1041E8001B6BC3F3080306EE903AF8EE666A9FED80
:1041F800326A67EE867A76EEA77AF7EE006A77EE8D
:10420800A67A27EE277A2A4A136BC3F3462307EECA
:10421800903AF8EE677AF7EE006A77EEA67A87EEBC
:10422800276ABCEEC66A80ED006A136BC3F30643C7
:1042380007EE903AF8EE677A77EEA67A87EE276A65
:10424800BCEEC66A80ED016A136BC3F3066307EE22
:10425800903AF8EE677A77EEA67AC7EE276AFCEE10
:10426800E66AC0ED026A5DF8044B704707EE10CAB3
:10427800F8EE476A9FED136A86EE267A0C4B1B6BA5
:10428800C3F3080306EE903AF8EE666A9FED0A6AF1
:1042980067EE867A76EEA77AF7EE006A77EEA67A68
:1042A80027EE277AAFE70023036043608360DAE7ED
:1042B800004402580024744C000000390090D003D8
:1042C8000024744A001BB74B00B58BB0B0F5807F53
:1042D80020D0B0F5007F71D0B0F5806F00F0C880B5
:1042E800B0F5006F00F02181B0F5805F00F08281A9
:1042F800B0F5002F00F0DB81B0F5803F00F01F82A1
:10430800B0F5804F00F03982B0F5004F00F084829C
:104318000020B2E2954B1B6D03F00703042B00F25B
:10432800A382DFE803F005101B0326009048A4E2EF
:104338008E4B186810F0007000F09F8207A8FFF7F6
:10434800C5FE089899E2894B186810F0006000F0E3
:10435800948204A8FFF7BEFC04988EE2834B186889
:1043680010F0005000F0898201A8FFF7B1FD019814
:1043780083E27E4AD36C03F04053126812F0040FB4
:1043880007D033B9794B1B68C3F3C1037948D840C8
:1043980073E2764A126812F4807F03D0B3F1805F2B
:1043A80000F06482714A126812F4003F00F06082E3
:1043B800B3F1005F00F05E8200205EE26B4B1B6D84
:1043C80003F4E073802B33D015D9C02B00F054824E
:1043D800B3F5807F1FD1654AD36C03F04053126850
:1043E80012F0040F2FD073BB604B1B68C3F3C103DB
:1043F8006048D84041E283B1402B0AD15B4B186832
:1044080010F0006000F0398204A8FFF763FC0498FC
:1044180033E2002031E200202FE2544B186810F0FC
:10442800007000F02A8207A8FFF750FE089824E2DF
:104438004E4B186810F0005000F01F8201A8FFF7DB
:1044480047FD019819E2494A126812F4807F03D0A7
:10445800B3F1805F00F01482444A126812F4003FFE
:1044680000F01082B3F1005F00F00E82002004E239
:104478003E4B9B6D03F46003B3F5800F35D016D91E
:10448800B3F5C00F00F00282B3F5000F20D1374A10
:10449800D36C03F04053126812F0040F30D07BBB8A
:1044A800324B1B68C3F3C1033248D840E5E18BB1F6
:1044B800B3F5001F0AD12D4B186810F0006000F00A
:1044C800DC8104A8FFF706FC0498D6E10020D4E1BB
:1044D8000020D2E1254B186810F0007000F0CD8163
:1044E80007A8FFF7F3FD0898C7E1204B186810F0FC
:1044F800005000F0C28101A8FFF7EAFC0198BCE176
:104508001A4A126812F4807F03D0B3F1805F00F07A
:10451800BF81164A126812F4003F00F0BB81B3F164
:10452800005F00F0B9810020A7E1104B9B6D03F0FC
:10453800E063B3F1007F3DD01ED9B3F1407F00F0B6
:10454800AD81B3F1806F28D1084AD36C03F0405392
:10455800126812F0040F38D0002B36D1034B1B68B9
:10456800C3F3C1030348D84087E100BF00440258A1
:104578000080BB000090D0038BB1B3F1807F0AD1DB
:10458800994B186810F0006000F0778104A8FFF7D5
:10459800A1FB049871E100206FE100206DE1924BCE
:1045A800186810F0007000F0688107A8FFF78EFD0A
:1045B800089862E18C4B186810F0005000F05D819B
:1045C80001A8FFF785FC019857E1874A126812F4A1
:1045D800807F03D0B3F1805F00F06281824A126865
:1045E80012F4003F00F05E81B3F1005F00F05C81DF
:1045F800002042E17C4B1B6D03F4E043B3F5005F00
:1046080035D016D9B3F5405F00F05081B3F5804F2F
:1046180020D1754AD36C03F04053126812F0040F8E
:1046280030D07BBB704B1B68C3F3C1036F48D840C5
:1046380023E18BB1B3F5805F0AD16B4B186810F09A
:10464800006000F01A8104A8FFF744FB049814E105
:10465800002012E1002010E1634B186810F0007090
:1046680000F00B8107A8FFF731FD089805E15E4BC4
:10467800186810F0005000F0008101A8FFF728FC2E
:104688000198FAE0584A126812F4807F03D0B3F117
:10469800805F00F00D81544A126812F4003F00F068
:1046A8000981B3F1005F00F007810020E5E04E4B7F
:1046B8009B6D03F44033B3F5803F10D0B3F5003F52
:1046C80018D00BB10020D8E0474B186810F00060F4
:1046D80000F0D38004A8FFF7FDFA0498CDE0424B20
:1046E800186810F0005000F0C88001A8FFF7F0FB30
:1046F8000398C2E03C4AD36C03F04053126812F0AE
:10470800040F07D033B9384B1B68C3F3C1033748CC
:10471800D840B2E0344A126812F4807F03D0B3F173
:10472800805F00F0CB80304A126812F4003F00F03E
:10473800C780B3F1005F00F0C58000209DE02A4BE0
:10474800DB6C13F4803302D063B9002095E0264B6C
:10475800186810F0007000F0908007A8FFF7B6FC0A
:1047680008988AE0204B186810F0006000F08580F7
:1047780004A8FFF7AFFA06987FE01B4B9B6D03F088
:10478800E043B3F1405F35D015D8B3F1805F21D055
:10479800B3F1005F09D1144B186810F000506CD0C9
:1047A80001A8FFF795FB029867E013B9FFF780FAB5
:1047B80063E0002061E0B3F1804F26D0B3F1A04F51
:1047C80006D1094B186810F4003056D0084854E058
:1047D800002052E0044B186810F000604DD004A887
:1047E800FFF778FA059848E0004402580090D00393
:1047F80000366E01344B186810F004003DD01B6879
:10480800C3F3C1033148D84037E02F4B186810F480
:10481800807032D02E4830E02B4B1B6D03F0405394
:10482800B3F1805F0CD0B3F1005F13D00BB100205F
:1048380023E0254B186810F400301ED025481CE0F2
:10484800214B186810F0007017D007A8FFF73EFC3E
:10485800089812E01C4B186810F000600DD004A8EE
:10486800FFF738FA059808E0002006E0184804E049
:10487800002002E0174800E017480BB05DF804FB81
:104888001348FAE70020F8E71248F6E71248F4E779
:104898000F48F2E70020F0E70E48EEE70E48ECE795
:1048A8000B48EAE70020E8E70A48E6E70A48E4E7B1
:1048B8000748E2E70020E0E70648DEE70448DCE7CF
:1048C8000020DAE70348D8E7004402580090D003F4
:1048D80000093D0000366E010080BB00F0B583B0D2
:1048E80000236BE085685E000324B44025EA0405D4
:1048F800CC68B4402C438460456825EA0C054C68B4
:10490800C4F300149C402C43446069E0DD0808357A
:1049180050F8254003F0070C4FEA8C0C4FF00F0EAF
:104928000EFA0CFE24EA0E0E0C6904FA0CF444EAA2
:104938000E0440F825406BE0092400E0002404FA46
:104948000EF42C430CF1020C694D45F82C404FF045
:10495800B0442568D44325EA02064F6817F4801F3F
:1049680001D042EA05064FF0B0452E606D6804EAB2
:1049780005064F6817F4001F01D042EA05064FF0FC
:10498800B0456E60D5F8845004EA05064F6817F400
:10499800003F01D042EA05064FF0B045C5F88460F3
:1049A800D5F880502C404E6816F4803F01D042EA7A
:1049B80005044FF0B042C2F8804001330A6832FA69
:1049C80003F400F092804FF0010C0CFA03FC1CEA8F
:1049D8000202F2D04C6804F00304013C012C81D996
:1049E8004C6804F00304032C0CD0C4685D004FF03D
:1049F800030C0CFA05FC24EA0C0C8C68AC4044EA65
:104A08000C04C4604C6804F00304022C3FF47EAF2D
:104A180004684FEA430E4FF0030C0CFA0EFC24EA2C
:104A28000C0C4C6804F0030404FA0EF444EA0C0479
:104A380004604C6814F4403FBFD02E4CD4F8F450B6
:104A480045F00205C4F8F450D4F8F44004F0020428
:104A58000194019C4FEA930C0CF10205244C54F884
:104A6800255003F0030E4FEA8E0E0F2404FA0EF4BD
:104A780025EA0405204CA0423FF460AF04F58064A9
:104A8800A04222D004F58064A04220D004F58064BE
:104A9800A0421ED004F58064A0421CD004F58064B6
:104AA800A0421AD004F58064A04218D004F58064AE
:104AB800A04216D004F58064A04214D004F58064A6
:104AC800A0423FF439AF0A2439E7012437E702242A
:104AD80035E7032433E7042431E705242FE70624C8
:104AE8002DE707242BE7082429E703B0F0BD00BF12
:104AF8000004005800440258000002580369194293
:104B080001D001207047002070470AB181617047C9
:104B18000904816170470000134BDB6813F0040F30
:104B280007D1114BDB6803F0070383421AD0012039
:104B3800704710B50C4AD36823F007030343D360CA
:104B480000F076F80446084B5B6813F4005F07D161
:104B580000F06EF8001BB0F57A7FF4D9012000E070
:104B6800002010BD0020704700480258104B1B78E9
:104B78000BB90120704710B504464FF47A70B0FBAA
:104B8800F3F30C4A1068B0FBF3F0FDF7CBFC68B9FF
:104B98000F2C01D901200AE0002221464FF0FF30F6
:104BA800FDF7B0FC044B1C60002000E0012010BDA4
:104BB80008200020042000200C20002010B503202D
:104BC800FDF78EFCFDF7FCFF0F498B69C3F3032348
:104BD8000E4AD35C03F01F03D8408B6903F00F0320
:104BE800D35C03F01F0320FA03F3094A1360094B4F
:104BF80018600F20FFF7BAFF10B10124204610BD3E
:104C08000446FDF705FAF9E70044025878940008CD
:104C18000020002004200020034B1B78034A116861
:104C28000B441360704700BF08200020B023002009
:104C3800014B1868704700BFB023002038B5044600
:104C4800FFF7F6FF0546B4F1FF3F02D0044B1B788F
:104C58001C44FFF7EDFF401BA042FAD338BD00BF4C
:104C680008200020014B1868000C70470010005CF9
:104C780003689A6912F0020F01D000229A62036851
:104C88009A6912F0010F03D19A6942F001029A6100
:104C9800704710B4019CC1F3090141EA024119436C
:104CA800214321F0004102685368640D04F48064D4
:104CB80044F07F7444F4583444F47F7444F003049B
:104CC80023EA04030B4353605DF8044B70472DE956
:104CD800F041044603689F6917F010074ED00E464E
:104CE80090461022DA6100252368986910F0200F99
:104CF8003DD1002D3BD1B6F1FF3FF5D0FFF798FF2E
:104D0800A0EB0800B04201D8002EEDD121684A6816
:104D180002F4804294F84230DBB2886910F4004F04
:104D280004D0203B18BF012302B9C3B923689B698B
:104D380013F0200FD8D1FFF77BFFA0EB080019284C
:104D4800F4D9636C43F020036364202384F8413072
:104D5800002384F8423084F840300125E6E74B68A8
:104D680043F480434B60FFF763FF8046DEE7002D86
:104D780040D12022DA610427012500E000252268BD
:104D8800936913F4807F05D047F001074FF48071D1
:104D9800D161012513F4806F06D047F00807226817
:104DA8004FF48061D161012513F4007F24D047F0CE
:104DB800020723684FF40072DA6101252046FFF7E5
:104DC80057FF2268536823F0FF7323F48B3323F4CF
:104DD800FF7323F001035360636C3B436364202338
:104DE80084F84130002384F8423084F84030284663
:104DF800BDE8F0810427C2E7002DF8D0DEE770B5E2
:104E080004460D46164623689B6913F0020F1DD110
:104E1800324629462046FFF75AFFC8B9B5F1FF3F89
:104E2800F1D0FFF705FF801BA84201D8002DEAD179
:104E3800636C43F020036364202384F8413000232B
:104E480084F8423084F84030012000E0002070BD32
:104E58000120FCE72DE9F0410646884617461D4625
:104E68003468A46938EA04040CBF01240024BC4255
:104E780018D1B5F1FF3FF3D0FFF7DAFE069BC01A51
:104E8800A84201D8002DEBD1736C43F02003736462
:104E9800202386F84130002386F8423086F84030D7
:104EA800012000E00020BDE8F08100002DE9F0417C
:104EB80082B0044690461D46089E099F194B0093F0
:104EC8004FF08073EAB2FFF7E4FE3A4631462046D7
:104ED800FFF795FFF8B9012D0ED123685FFA88F224
:104EE8009A6200973346002280212046FFF7B2FFDE
:104EF800A8B902B0BDE8F08123684FEA18229A6287
:104F08003A4631462046FFF77AFF30B923685FFA00
:104F180088F29A62E5E70120EBE70120E9E7012042
:104F2800E7E700BF002000802DE9F04182B0044689
:104F380090461D46089E099F184B00930023EAB22D
:104F4800FFF7A7FE3A4631462046FFF758FFF8B963
:104F5800012D0ED123685FFA88F29A6200973346D2
:104F6800002240212046FFF775FFA8B902B0BDE82E
:104F7800F08123684FEA18229A623A463146204661
:104F8800FFF73DFF30B923685FFA88F29A62E5E7D8
:104F98000120EBE70120E9E70120E7E70020008096
:104FA80070B505460C4616462B689B6913F0200F12
:104FB8001AD1324621462846FFF789FEB0B9FFF7D5
:104FC80037FE801BA04201D8002CEDD16B6C43F05A
:104FD80020036B64202385F84130002385F8423094
:104FE80085F84030012070BD0020FCE70120FAE779
:104FF800002857D010B5044690F84130002B41D016
:10500800242384F841302268136823F001031360D5
:105018006368226823F0706313612268936823F43D
:1050280000439360E368012B31D0A368226843F4FE
:1050380004439360E368022B2FD0226851681A4B0F
:105048000B4353602268D36823F40043D360236979
:1050580062691343A169226843EA0123D360E369C3
:10506800216A22680B4313602268136843F0010326
:10507800136000206064202384F84130206384F8A2
:10508800420010BD80F84030FCF7D4FFB8E7A368B1
:10509800226843F400439360CCE723684FF400622E
:1050A8005A60CAE701207047008000022DE9F04FDE
:1050B80083B00D46BDF834A00E9F90F84110C9B2D8
:1050C800202940F0BC800446904699460C9BBAF1D2
:1050D800000F18BF002B16D090F84030012B00F0BD
:1050E800B2804FF0010B80F840B0FFF7A1FD0646F3
:1050F800009019235A464FF400412046FFF7AAFEB4
:1051080030B101209CE04FF400734364012097E024
:10511800212384F84130402384F84230002363641B
:105128000C9A6262A4F82AA06363019600974B4622
:10513800424629462046FFF7B9FE70B9638D9BB2F7
:10514800FF2B0FD9FF222285002300934FF0807395
:1051580029462046FFF79DFD21E0002384F84030D2
:1051680058466DE0628D92B22285002300934FF07D
:105178000073D2B229462046FFF78BFD0FE0628DFF
:1051880092B22285002300934FF00073D2B22946D1
:105198002046FFF77EFD638D9BB2002B33D032464D
:1051A80039462046FFF72BFE00284ED1626A236855
:1051B80012789A62636A01336362638D9BB2013B22
:1051C8009BB26385238D013B9BB22385628D92B28E
:1051D800002AE0D0002BDED100963B460022802139
:1051E8002046FFF737FE90BB638D9BB2FF2BC6D9D5
:1051F800FF222285002300934FF080732946204622
:10520800FFF747FDC7E7324639462046FFF7C8FE95
:10521800F8B923682022DA6121684B6823F0FF730C
:1052280023F48B3323F4FF7323F001034B6084F8DA
:105238004120002384F8423084F8403000E0022006
:1052480003B0BDE8F08F0220FAE70120F8E701205B
:10525800F6E70120F4E700002DE9F04F83B00D4692
:10526800BDF834A00E9F90F84110C9B2202940F033
:10527800BD800446904699460C9BBAF1000F18BFB2
:10528800002B16D090F84030012B00F0B3804FF07F
:10529800010B80F840B0FFF7CBFC064600901923BD
:1052A8005A464FF400412046FFF7D4FD30B10120A3
:1052B8009DE04FF400734364012098E0222384F8B2
:1052C8004130402384F84230002363640C9A6262C0
:1052D800A4F82AA06363019600974B4642462946E4
:1052E8002046FFF721FE70B9638D9BB2FF2B0FD9C3
:1052F800FF222285434B00934FF0807329462046B6
:10530800FFF7C7FC21E0002384F8403058466EE0E0
:10531800628D92B222853B4B00934FF00073D2B25C
:1053280029462046FFF7B5FC0FE0628D92B2228530
:10533800002300934FF00073D2B229462046FFF7AE
:10534800A8FC638D9BB2002B34D000963B4600220C
:1053580004212046FFF77EFD00284DD123685A6AB4
:10536800636A1A70636A01336362228D013A92B2EA
:105378002285638D9BB2013B9BB26385638D9BB293
:10538800002BDED0002ADCD100963B468021204647
:10539800FFF760FD90BB638D9BB2FF2BC5D9FF2241
:1053A8002285002300934FF0807329462046FFF79B
:1053B80070FCC6E7324639462046FFF7F1FDF8B9DA
:1053C80023682022DA6121684B6823F0FF7323F4F5
:1053D8008B3323F4FF7323F001034B6084F84120DF
:1053E800002384F8423084F8403000E0022003B003
:1053F800BDE8F08F0220FAE70120F8E70120F6E780
:105408000120F4E700240080034690F84120D2B23E
:10541800202A23D190F84020012A21D0012280F8A7
:105428004020242280F841200068026822F001020E
:1054380002601868026822F48052026018680268E4
:105448001143016019680A6842F001020A602022CB
:1054580083F84120002083F84000704702207047FD
:1054680002207047034690F84120D2B2202A21D169
:1054780090F84020012A1FD0012280F840202422E1
:1054880080F841200068026822F001020260186872
:10549800026822F4706242EA0122026019680A680E
:1054A80042F001020A60202283F84120002083F89C
:1054B800400070470220704702207047F0B4036A2A
:1054C80023F001030362026A466884691E4B234085
:1054D8000D681D4322F002028B6813431B4A1C4CC3
:1054E800A04218BF90420CBF012200220CD004F544
:1054F8008044A04214BF00240124164FB84203D0B0
:1055080014B9154CA04205D123F00803CC682343F5
:1055180023F004035AB9114A904214BF0022012211
:105528000C4CA04203D012B90B4A904205D126F484
:1055380040764A6932438E691643466085614A68F7
:1055480042630362F0BC70478CFFFEFF000001401D
:10555800000401400040014000480140004401406F
:1055680070B4036A23F480730362036A4568C469EC
:105578001A4A22400E68164323F400738A6843EAE5
:105588000223174A174CA04218BF90420CBF0122B1
:10559800002206D123F40063CC6843EA042323F4F1
:1055A80080635AB9104A904214BF002201220F4C5E
:1055B800A04203D012B90E4A904207D125F44052B6
:1055C8004C6942EA04128C6942EA04154560C661D6
:1055D8004A68C263036270BC704700BF8CFFFEFF5D
:1055E8000000014000040140004401400040014027
:1055F8000048014070B4036A23F480530362036ACD
:105608004468C569144A2A400D6842EA052223F411
:1056180000538D6843EA0533104E114DA84218BF58
:10562800B0420DD005F58045A84214BF00250125DC
:1056380006F58046B04203D015B90A4DA84204D1F8
:1056480024F480444D6944EA85144460C2614A6880
:105658000264036270BC7047FF8CFFFE00000140CB
:10566800000401400048014070B4036A23F4803309
:105678000362036A4268456D144E2E400D682E433E
:1056880023F400338C6843EA0443114D114CA042C3
:1056980018BFA8420DD004F58044A04214BF0024CE
:1056A800012405F58045A84203D014B90A4CA0424C
:1056B80004D122F480324C6942EA042242604665F1
:1056C8004A688265036270BC704700BF8FFFFEFFA7
:1056D80000000140000401400048014070B4036A22
:1056E80023F480130362036A4468456D144A2A4010
:1056F8000D6842EA052223F400138D6843EA055336
:10570800104E114DA84218BFB0420DD005F5804586
:10571800A84214BF0025012506F58046B04203D0F3
:1057280015B90A4DA84204D124F480244D6944EAED
:105738008524446042654A68C265036270BC70474C
:10574800FF8FFFFE000001400004014000480140B7
:1057580010B4036A046A24F001040462846924F022
:10576800F00C4CEA021223F00A030B438261036235
:105778005DF8044B704710B4036A23F0100303620A
:105788008469036A24F4704C4CEA023223F0A003C3
:1057980043EA0113826103625DF8044B704700001D
:1057A8008268034B13400B4343F007038360704741
:1057B8008FFFCFFF7047000030B50368394A904229
:1057C80014BF4FF0000E4FF0010EB0F1804F14BF20
:1057D80072464EF00102AAB9334CA04214BF00240D
:1057E8000124324DA8420DD064B904F1804404F577
:1057F8008234A04214BF0024012405F50065A842A4
:1058080000D01CB123F070034C68234312BB264A16
:10581800904214BF00220122244CA0421AD0CAB9D7
:1058280002F1804202F58232904214BF0022012226
:1058380004F50064A0420DD062B91D4A904214BF1D
:105848000022012204F59A34A04203D012B9194A61
:10585800904204D123F4407CCB6843EA0C0323F044
:1058680080034A69134303608A68C2620A688262D5
:10587800114A904214BF73464EF0010363B90C4BB2
:10588800984214BF0023012302F57052904203D0BE
:1058980013B9084B984201D10B6903630123436193
:1058A80030BD00BF00000140000800400004004077
:1058B80000440140004801400004014060B310B5B5
:1058C800044690F83D3013B3022384F83D30214656
:1058D80051F8040BFFF770FF012384F8483084F86F
:1058E8003E3084F83F3084F8403084F8413084F802
:1058F800423084F8433084F8443084F8453084F8E2
:10590800463084F8473084F83D30002010BD80F8D8
:105918003C30FCF7BBFCD7E70120704760B310B5FB
:10592800044690F83D3013B3022384F83D302146F5
:1059380051F8040BFFF740FF012384F8483084F83E
:105948003E3084F83F3084F8403084F8413084F8A1
:10595800423084F8433084F8443084F8453084F881
:10596800463084F8473084F83D30002010BD80F878
:105978003C30FFF71FFFD7E70120704770B4036A78
:1059880023F010030362036A456884691A4E2640AF
:105998000C6846EA042623F020038A6843EA0213C7
:1059A800164A174CA04218BF90420CBF0122002291
:1059B80006D123F08003CC6843EA041323F04003A4
:1059C8005AB9104A904214BF002201220E4CA0423C
:1059D80003D012B90D4A904207D125F4406C4A69A8
:1059E8004CEA820C8A694CEA8205456086614A68FD
:1059F8008263036270BC7047FF8CFFFE00000140A9
:105A080000040140004401400040014000480140BA
:105A180038B590F83C30012B00F0958004460D46CF
:105A2800012380F83C30142A00F28880DFE802F075
:105A38000B8686861F868686348686864886868670
:105A48005D86868671000068FFF738FD22689369D5
:105A580043F0080393612268936923F00403936178
:105A68002268936929690B439361002067E0006805
:105A7800FFF784FF2268936943F400639361226807
:105A8800936923F48063936122689369296943EADF
:105A980001239361002052E00068FFF761FD22684E
:105AA800D36943F00803D3612268D36923F0040360
:105AB800D3612268D36929690B43D36100203EE092
:105AC8000068FFF797FD2268D36943F40063D36148
